{
  "address": "0x5FbDB2315678afecb367f032d93F642f64180aa3",
  "abi": [
    {
      "inputs": [],
      "stateMutability": "nonpayable",
      "type": "constructor"
    },
    {
      "anonymous": false,
      "inputs": [
        {
          "indexed": false,
          "internalType": "address",
          "name": "buyer",
          "type": "address"
        },
        {
          "indexed": false,
          "internalType": "uint256",
          "name": "orderId",
          "type": "uint256"
        },
        {
          "indexed": false,
          "internalType": "uint256",
          "name": "itemId",
          "type": "uint256"
        }
      ],
      "name": "Bought",
      "type": "event"
    },
    {
      "anonymous": false,
      "inputs": [
        {
          "indexed": false,
          "internalType": "string",
          "name": "_name",
          "type": "string"
        },
        {
          "indexed": false,
          "internalType": "uint256",
          "name": "_cost",
          "type": "uint256"
        },
        {
          "indexed": false,
          "internalType": "uint256",
          "name": "_stock",
          "type": "uint256"
        }
      ],
      "name": "Listed",
      "type": "event"
    },
    {
      "inputs": [
        {
          "internalType": "uint256",
          "name": "_id",
          "type": "uint256"
        }
      ],
      "name": "buy",
      "outputs": [],
      "stateMutability": "payable",
      "type": "function"
    },
    {
      "inputs": [
        {
          "internalType": "uint256",
          "name": "",
          "type": "uint256"
        }
      ],
      "name": "items",
      "outputs": [
        {
          "internalType": "uint256",
          "name": "id",
          "type": "uint256"
        },
        {
          "internalType": "string",
          "name": "name",
          "type": "string"
        },
        {
          "internalType": "string",
          "name": "category",
          "type": "string"
        },
        {
          "internalType": "string",
          "name": "image",
          "type": "string"
        },
        {
          "internalType": "uint256",
          "name": "cost",
          "type": "uint256"
        },
        {
          "internalType": "uint256",
          "name": "rating",
          "type": "uint256"
        },
        {
          "internalType": "uint256",
          "name": "stock",
          "type": "uint256"
        }
      ],
      "stateMutability": "view",
      "type": "function"
    },
    {
      "inputs": [
        {
          "internalType": "uint256",
          "name": "id",
          "type": "uint256"
        },
        {
          "internalType": "string",
          "name": "name",
          "type": "string"
        },
        {
          "internalType": "string",
          "name": "category",
          "type": "string"
        },
        {
          "internalType": "string",
          "name": "image",
          "type": "string"
        },
        {
          "internalType": "uint256",
          "name": "cost",
          "type": "uint256"
        },
        {
          "internalType": "uint256",
          "name": "rating",
          "type": "uint256"
        },
        {
          "internalType": "uint256",
          "name": "stock",
          "type": "uint256"
        }
      ],
      "name": "list",
      "outputs": [],
      "stateMutability": "nonpayable",
      "type": "function"
    },
    {
      "inputs": [
        {
          "internalType": "address",
          "name": "",
          "type": "address"
        }
      ],
      "name": "orderCount",
      "outputs": [
        {
          "internalType": "uint256",
          "name": "",
          "type": "uint256"
        }
      ],
      "stateMutability": "view",
      "type": "function"
    },
    {
      "inputs": [
        {
          "internalType": "address",
          "name": "",
          "type": "address"
        },
        {
          "internalType": "uint256",
          "name": "",
          "type": "uint256"
        }
      ],
      "name": "orders",
      "outputs": [
        {
          "internalType": "uint256",
          "name": "time",
          "type": "uint256"
        },
        {
          "components": [
            {
              "internalType": "uint256",
              "name": "id",
              "type": "uint256"
            },
            {
              "internalType": "string",
              "name": "name",
              "type": "string"
            },
            {
              "internalType": "string",
              "name": "category",
              "type": "string"
            },
            {
              "internalType": "string",
              "name": "image",
              "type": "string"
            },
            {
              "internalType": "uint256",
              "name": "cost",
              "type": "uint256"
            },
            {
              "internalType": "uint256",
              "name": "rating",
              "type": "uint256"
            },
            {
              "internalType": "uint256",
              "name": "stock",
              "type": "uint256"
            }
          ],
          "internalType": "struct Web3Ecommerce.Item",
          "name": "item",
          "type": "tuple"
        }
      ],
      "stateMutability": "view",
      "type": "function"
    },
    {
      "inputs": [],
      "name": "owner",
      "outputs": [
        {
          "internalType": "address",
          "name": "",
          "type": "address"
        }
      ],
      "stateMutability": "view",
      "type": "function"
    },
    {
      "inputs": [],
      "name": "withdraw",
      "outputs": [],
      "stateMutability": "nonpayable",
      "type": "function"
    }
  ],
  "transactionHash": "0xbfdbeae607f89141c20a1cb6c162f55fa1a9e960381def0393d9f0d82509bfd0",
  "args": [],
  "numDeployments": 1,
  "solcInputHash": "cce8c94bcb0d0ab653476f680340fb87",
  "bytecode": "0x608060405234801561001057600080fd5b50336000806101000a81548173ffffffffffffffffffffffffffffffffffffffff021916908373ffffffffffffffffffffffffffffffffffffffff16021790555061193e806100606000396000f3fe6080604052600436106100705760003560e01c80638da5cb5b1161004e5780638da5cb5b14610107578063bfb231d214610132578063d96a094a14610175578063eea8a7e81461019157610070565b80633ccfd60b14610075578063713d856b1461008c578063793b8c6d146100c9575b600080fd5b34801561008157600080fd5b5061008a6101ba565b005b34801561009857600080fd5b506100b360048036038101906100ae9190610dc4565b6102e2565b6040516100c09190610e0a565b60405180910390f35b3480156100d557600080fd5b506100f060048036038101906100eb9190610e51565b6102fa565b6040516100fe929190610fda565b60405180910390f35b34801561011357600080fd5b5061011c610513565b6040516101299190611019565b60405180910390f35b34801561013e57600080fd5b5061015960048036038101906101549190611034565b610537565b60405161016c97969594939291906110ab565b60405180910390f35b61018f600480360381019061018a9190611034565b610711565b005b34801561019d57600080fd5b506101b860048036038101906101b39190611264565b610bc7565b005b60008054906101000a900473ffffffffffffffffffffffffffffffffffffffff1673ffffffffffffffffffffffffffffffffffffffff163373ffffffffffffffffffffffffffffffffffffffff1614610248576040517f08c379a000000000000000000000000000000000000000000000000000000000815260040161023f906113cc565b60405180910390fd5b60008060009054906101000a900473ffffffffffffffffffffffffffffffffffffffff1673ffffffffffffffffffffffffffffffffffffffff164760405161028f9061141d565b60006040518083038185875af1925050503d80600081146102cc576040519150601f19603f3d011682016040523d82523d6000602084013e6102d1565b606091505b50509050806102df57600080fd5b50565b60026020528060005260406000206000915090505481565b600360205281600052604060002060205280600052604060002060009150915050806000015490806001016040518060e00160405290816000820154815260200160018201805461034a90611461565b80601f016020809104026020016040519081016040528092919081815260200182805461037690611461565b80156103c35780601f10610398576101008083540402835291602001916103c3565b820191906000526020600020905b8154815290600101906020018083116103a657829003601f168201915b505050505081526020016002820180546103dc90611461565b80601f016020809104026020016040519081016040528092919081815260200182805461040890611461565b80156104555780601f1061042a57610100808354040283529160200191610455565b820191906000526020600020905b81548152906001019060200180831161043857829003601f168201915b5050505050815260200160038201805461046e90611461565b80601f016020809104026020016040519081016040528092919081815260200182805461049a90611461565b80156104e75780601f106104bc576101008083540402835291602001916104e7565b820191906000526020600020905b8154815290600101906020018083116104ca57829003601f168201915b505050505081526020016004820154815260200160058201548152602001600682015481525050905082565b60008054906101000a900473ffffffffffffffffffffffffffffffffffffffff1681565b600160205280600052604060002060009150905080600001549080600101805461056090611461565b80601f016020809104026020016040519081016040528092919081815260200182805461058c90611461565b80156105d95780601f106105ae576101008083540402835291602001916105d9565b820191906000526020600020905b8154815290600101906020018083116105bc57829003601f168201915b5050505050908060020180546105ee90611461565b80601f016020809104026020016040519081016040528092919081815260200182805461061a90611461565b80156106675780601f1061063c57610100808354040283529160200191610667565b820191906000526020600020905b81548152906001019060200180831161064a57829003601f168201915b50505050509080600301805461067c90611461565b80601f01602080910402602001604051908101604052809291908181526020018280546106a890611461565b80156106f55780601f106106ca576101008083540402835291602001916106f5565b820191906000526020600020905b8154815290600101906020018083116106d857829003601f168201915b5050505050908060040154908060050154908060060154905087565b6000600160008381526020019081526020016000206040518060e00160405290816000820154815260200160018201805461074b90611461565b80601f016020809104026020016040519081016040528092919081815260200182805461077790611461565b80156107c45780601f10610799576101008083540402835291602001916107c4565b820191906000526020600020905b8154815290600101906020018083116107a757829003601f168201915b505050505081526020016002820180546107dd90611461565b80601f016020809104026020016040519081016040528092919081815260200182805461080990611461565b80156108565780601f1061082b57610100808354040283529160200191610856565b820191906000526020600020905b81548152906001019060200180831161083957829003601f168201915b5050505050815260200160038201805461086f90611461565b80601f016020809104026020016040519081016040528092919081815260200182805461089b90611461565b80156108e85780601f106108bd576101008083540402835291602001916108e8565b820191906000526020600020905b8154815290600101906020018083116108cb57829003601f168201915b50505050508152602001600482015481526020016005820154815260200160068201548152505090508060800151341015610958576040517f08c379a000000000000000000000000000000000000000000000000000000000815260040161094f906114de565b60405180910390fd5b60008160c001511161099f576040517f08c379a00000000000000000000000000000000000000000000000000000000081526004016109969061154a565b60405180910390fd5b600260003373ffffffffffffffffffffffffffffffffffffffff1673ffffffffffffffffffffffffffffffffffffffff16815260200190815260200160002060008154809291906109ef90611599565b9190505550604051806040016040528042815260200182815250600360003373ffffffffffffffffffffffffffffffffffffffff1673ffffffffffffffffffffffffffffffffffffffff1681526020019081526020016000206000600260003373ffffffffffffffffffffffffffffffffffffffff1673ffffffffffffffffffffffffffffffffffffffff16815260200190815260200160002054815260200190815260200160002060008201518160000155602082015181600101600082015181600001556020820151816001019081610aca919061178d565b506040820151816002019081610ae0919061178d565b506060820151816003019081610af6919061178d565b506080820151816004015560a0820151816005015560c08201518160060155505090505060018160c00151610b2b919061185f565b60016000848152602001908152602001600020600601819055507fa9a40dec7a304e5915d11358b968c1e8d365992abf20f82285d1df1b30c8e24c33600260003373ffffffffffffffffffffffffffffffffffffffff1673ffffffffffffffffffffffffffffffffffffffff168152602001908152602001600020548360000151604051610bbb93929190611893565b60405180910390a15050565b60008054906101000a900473ffffffffffffffffffffffffffffffffffffffff1673ffffffffffffffffffffffffffffffffffffffff163373ffffffffffffffffffffffffffffffffffffffff1614610c55576040517f08c379a0000000000000000000000000000000000000000000000000000000008152600401610c4c906113cc565b60405180910390fd5b60006040518060e0016040528089815260200188815260200187815260200186815260200185815260200184815260200183815250905080600160008a8152602001908152602001600020600082015181600001556020820151816001019081610cbf919061178d565b506040820151816002019081610cd5919061178d565b506060820151816003019081610ceb919061178d565b506080820151816004015560a0820151816005015560c082015181600601559050507fbef41a89ede581d3a764962f0c1e503257619b7af2280009264c6afe6a0a6c6f878584604051610d40939291906118ca565b60405180910390a15050505050505050565b6000604051905090565b600080fd5b600080fd5b600073ffffffffffffffffffffffffffffffffffffffff82169050919050565b6000610d9182610d66565b9050919050565b610da181610d86565b8114610dac57600080fd5b50565b600081359050610dbe81610d98565b92915050565b600060208284031215610dda57610dd9610d5c565b5b6000610de884828501610daf565b91505092915050565b6000819050919050565b610e0481610df1565b82525050565b6000602082019050610e1f6000830184610dfb565b92915050565b610e2e81610df1565b8114610e3957600080fd5b50565b600081359050610e4b81610e25565b92915050565b60008060408385031215610e6857610e67610d5c565b5b6000610e7685828601610daf565b9250506020610e8785828601610e3c565b9150509250929050565b610e9a81610df1565b82525050565b600081519050919050565b600082825260208201905092915050565b60005b83811015610eda578082015181840152602081019050610ebf565b60008484015250505050565b6000601f19601f8301169050919050565b6000610f0282610ea0565b610f0c8185610eab565b9350610f1c818560208601610ebc565b610f2581610ee6565b840191505092915050565b600060e083016000830151610f486000860182610e91565b5060208301518482036020860152610f608282610ef7565b91505060408301518482036040860152610f7a8282610ef7565b91505060608301518482036060860152610f948282610ef7565b9150506080830151610fa96080860182610e91565b5060a0830151610fbc60a0860182610e91565b5060c0830151610fcf60c0860182610e91565b508091505092915050565b6000604082019050610fef6000830185610dfb565b81810360208301526110018184610f30565b90509392505050565b61101381610d86565b82525050565b600060208201905061102e600083018461100a565b92915050565b60006020828403121561104a57611049610d5c565b5b600061105884828501610e3c565b91505092915050565b600082825260208201905092915050565b600061107d82610ea0565b6110878185611061565b9350611097818560208601610ebc565b6110a081610ee6565b840191505092915050565b600060e0820190506110c0600083018a610dfb565b81810360208301526110d28189611072565b905081810360408301526110e68188611072565b905081810360608301526110fa8187611072565b90506111096080830186610dfb565b61111660a0830185610dfb565b61112360c0830184610dfb565b98975050505050505050565b600080fd5b600080fd5b7f4e487b7100000000000000000000000000000000000000000000000000000000600052604160045260246000fd5b61117182610ee6565b810181811067ffffffffffffffff821117156111905761118f611139565b5b80604052505050565b60006111a3610d52565b90506111af8282611168565b919050565b600067ffffffffffffffff8211156111cf576111ce611139565b5b6111d882610ee6565b9050602081019050919050565b82818337600083830152505050565b6000611207611202846111b4565b611199565b90508281526020810184848401111561122357611222611134565b5b61122e8482856111e5565b509392505050565b600082601f83011261124b5761124a61112f565b5b813561125b8482602086016111f4565b91505092915050565b600080600080600080600060e0888a03121561128357611282610d5c565b5b60006112918a828b01610e3c565b975050602088013567ffffffffffffffff8111156112b2576112b1610d61565b5b6112be8a828b01611236565b965050604088013567ffffffffffffffff8111156112df576112de610d61565b5b6112eb8a828b01611236565b955050606088013567ffffffffffffffff81111561130c5761130b610d61565b5b6113188a828b01611236565b94505060806113298a828b01610e3c565b93505060a061133a8a828b01610e3c565b92505060c061134b8a828b01610e3c565b91505092959891949750929550565b7f6f6e6c79206f776e65722063616e2063616c6c20746869732066756e6374696f60008201527f6e00000000000000000000000000000000000000000000000000000000000000602082015250565b60006113b6602183611061565b91506113c18261135a565b604082019050919050565b600060208201905081810360008301526113e5816113a9565b9050919050565b600081905092915050565b50565b60006114076000836113ec565b9150611412826113f7565b600082019050919050565b6000611428826113fa565b9150819050919050565b7f4e487b7100000000000000000000000000000000000000000000000000000000600052602260045260246000fd5b6000600282049050600182168061147957607f821691505b60208210810361148c5761148b611432565b5b50919050565b7f696e73756666696369656e742066756e6473206465706f736974656400000000600082015250565b60006114c8601c83611061565b91506114d382611492565b602082019050919050565b600060208201905081810360008301526114f7816114bb565b9050919050565b7f6f7574206f662073746f636b0000000000000000000000000000000000000000600082015250565b6000611534600c83611061565b915061153f826114fe565b602082019050919050565b6000602082019050818103600083015261156381611527565b9050919050565b7f4e487b7100000000000000000000000000000000000000000000000000000000600052601160045260246000fd5b60006115a482610df1565b91507fffffffffffffffffffffffffffffffffffffffffffffffffffffffffffffffff82036115d6576115d561156a565b5b600182019050919050565b60008190508160005260206000209050919050565b60006020601f8301049050919050565b600082821b905092915050565b6000600883026116437fffffffffffffffffffffffffffffffffffffffffffffffffffffffffffffffff82611606565b61164d8683611606565b95508019841693508086168417925050509392505050565b6000819050919050565b600061168a61168561168084610df1565b611665565b610df1565b9050919050565b6000819050919050565b6116a48361166f565b6116b86116b082611691565b848454611613565b825550505050565b600090565b6116cd6116c0565b6116d881848461169b565b505050565b5b818110156116fc576116f16000826116c5565b6001810190506116de565b5050565b601f82111561174157611712816115e1565b61171b846115f6565b8101602085101561172a578190505b61173e611736856115f6565b8301826116dd565b50505b505050565b600082821c905092915050565b600061176460001984600802611746565b1980831691505092915050565b600061177d8383611753565b9150826002028217905092915050565b61179682610ea0565b67ffffffffffffffff8111156117af576117ae611139565b5b6117b98254611461565b6117c4828285611700565b600060209050601f8311600181146117f757600084156117e5578287015190505b6117ef8582611771565b865550611857565b601f198416611805866115e1565b60005b8281101561182d57848901518255600182019150602085019450602081019050611808565b8683101561184a5784890151611846601f891682611753565b8355505b6001600288020188555050505b505050505050565b600061186a82610df1565b915061187583610df1565b925082820390508181111561188d5761188c61156a565b5b92915050565b60006060820190506118a8600083018661100a565b6118b56020830185610dfb565b6118c26040830184610dfb565b949350505050565b600060608201905081810360008301526118e48186611072565b90506118f36020830185610dfb565b6119006040830184610dfb565b94935050505056fea26469706673582212208f95ac5a1e775ce9d5d7f27bb4e8ea58701c4d50569dcb6013513017e0c67db064736f6c63430008180033",
  "devdoc": {
    "kind": "dev",
    "methods": {},
    "version": 1
  },
  "userdoc": {
    "kind": "user",
    "methods": {},
    "version": 1
  },
  "storageLayout": {
    "storage": [
      {
        "astId": 3,
        "contract": "contracts/web3Ecommerce.sol:Web3Ecommerce",
        "label": "owner",
        "offset": 0,
        "slot": "0",
        "type": "t_address"
      },
      {
        "astId": 54,
        "contract": "contracts/web3Ecommerce.sol:Web3Ecommerce",
        "label": "items",
        "offset": 0,
        "slot": "1",
        "type": "t_mapping(t_uint256,t_struct(Item)43_storage)"
      },
      {
        "astId": 58,
        "contract": "contracts/web3Ecommerce.sol:Web3Ecommerce",
        "label": "orderCount",
        "offset": 0,
        "slot": "2",
        "type": "t_mapping(t_address,t_uint256)"
      },
      {
        "astId": 65,
        "contract": "contracts/web3Ecommerce.sol:Web3Ecommerce",
        "label": "orders",
        "offset": 0,
        "slot": "3",
        "type": "t_mapping(t_address,t_mapping(t_uint256,t_struct(Order)49_storage))"
      }
    ],
    "types": {
      "t_address": {
        "encoding": "inplace",
        "label": "address",
        "numberOfBytes": "20"
      },
      "t_mapping(t_address,t_mapping(t_uint256,t_struct(Order)49_storage))": {
        "encoding": "mapping",
        "key": "t_address",
        "label": "mapping(address => mapping(uint256 => struct Web3Ecommerce.Order))",
        "numberOfBytes": "32",
        "value": "t_mapping(t_uint256,t_struct(Order)49_storage)"
      },
      "t_mapping(t_address,t_uint256)": {
        "encoding": "mapping",
        "key": "t_address",
        "label": "mapping(address => uint256)",
        "numberOfBytes": "32",
        "value": "t_uint256"
      },
      "t_mapping(t_uint256,t_struct(Item)43_storage)": {
        "encoding": "mapping",
        "key": "t_uint256",
        "label": "mapping(uint256 => struct Web3Ecommerce.Item)",
        "numberOfBytes": "32",
        "value": "t_struct(Item)43_storage"
      },
      "t_mapping(t_uint256,t_struct(Order)49_storage)": {
        "encoding": "mapping",
        "key": "t_uint256",
        "label": "mapping(uint256 => struct Web3Ecommerce.Order)",
        "numberOfBytes": "32",
        "value": "t_struct(Order)49_storage"
      },
      "t_string_storage": {
        "encoding": "bytes",
        "label": "string",
        "numberOfBytes": "32"
      },
      "t_struct(Item)43_storage": {
        "encoding": "inplace",
        "label": "struct Web3Ecommerce.Item",
        "members": [
          {
            "astId": 30,
            "contract": "contracts/web3Ecommerce.sol:Web3Ecommerce",
            "label": "id",
            "offset": 0,
            "slot": "0",
            "type": "t_uint256"
          },
          {
            "astId": 32,
            "contract": "contracts/web3Ecommerce.sol:Web3Ecommerce",
            "label": "name",
            "offset": 0,
            "slot": "1",
            "type": "t_string_storage"
          },
          {
            "astId": 34,
            "contract": "contracts/web3Ecommerce.sol:Web3Ecommerce",
            "label": "category",
            "offset": 0,
            "slot": "2",
            "type": "t_string_storage"
          },
          {
            "astId": 36,
            "contract": "contracts/web3Ecommerce.sol:Web3Ecommerce",
            "label": "image",
            "offset": 0,
            "slot": "3",
            "type": "t_string_storage"
          },
          {
            "astId": 38,
            "contract": "contracts/web3Ecommerce.sol:Web3Ecommerce",
            "label": "cost",
            "offset": 0,
            "slot": "4",
            "type": "t_uint256"
          },
          {
            "astId": 40,
            "contract": "contracts/web3Ecommerce.sol:Web3Ecommerce",
            "label": "rating",
            "offset": 0,
            "slot": "5",
            "type": "t_uint256"
          },
          {
            "astId": 42,
            "contract": "contracts/web3Ecommerce.sol:Web3Ecommerce",
            "label": "stock",
            "offset": 0,
            "slot": "6",
            "type": "t_uint256"
          }
        ],
        "numberOfBytes": "224"
      },
      "t_struct(Order)49_storage": {
        "encoding": "inplace",
        "label": "struct Web3Ecommerce.Order",
        "members": [
          {
            "astId": 45,
            "contract": "contracts/web3Ecommerce.sol:Web3Ecommerce",
            "label": "time",
            "offset": 0,
            "slot": "0",
            "type": "t_uint256"
          },
          {
            "astId": 48,
            "contract": "contracts/web3Ecommerce.sol:Web3Ecommerce",
            "label": "item",
            "offset": 0,
            "slot": "1",
            "type": "t_struct(Item)43_storage"
          }
        ],
        "numberOfBytes": "256"
      },
      "t_uint256": {
        "encoding": "inplace",
        "label": "uint256",
        "numberOfBytes": "32"
      }
    }
  }
}